:020000041000EA
:1000000000B5324B212058609868022188439860DF
:10001000D860186158612E4B002199600221596106
:100020000121F02299502B49196001219960352056
:1000300000F044F80222904214D00621196600F024
:1000400034F8196E01211966002018661A6600F04E
:100050002CF8196E196E196E052000F02FF8012189
:100060000842F9D1002199601B49196000215960AB
:100070001A491B48016001219960EB211966A021F2
:10008000196600F012F800219960164914480160C1
:100090000121996001BC002800D000471248134993
:1000A000086003C880F30888084703B5996A0420EC
:1000B0000142FBD001200142F8D103BD02B5186610
:1000C0001866FFF7F2FF186E186E02BD00000240BE
:1000D000000000180000070000035F00212200005C
:1000E000F4000018222000A00001001008ED00E03C
:1000F00000000000000000000000000074B24E7A12
:1001000000200420F7010010C3010010C5010010F9
:10011000C1010010C1010010C1010010C101001097
:10012000C1010010C1010010C1010010C701001081
:10013000C1010010C1010010C9010010CB01001065
:10014000CD010010CD010010CD010010CD01001037
:10015000CD010010CD010010CD010010CD01001027
:10016000CD010010CD010010CD010010CD01001017
:10017000CD010010CD010010CD010010CD01001007
:10018000CD010010CD010010CD010010CD010010F7
:10019000CD010010CD010010CD010010CD010010E7
:1001A000CD010010CD010010CD010010CD010010D7
:1001B000CD010010CD010010CD010010CD010010C7
:1001C00000BE00BE00BE00BE00BE00BE00F04BF888
:1001D000103800BEF2EB887150A8001074A800100F
:1001E0003402001090A31AE700202149086006C8D5
:1001F00081F3088810471F48006800282FD10DA4FC
:100200000ECC002902D000F012F8F9E71A491B4A77
:10021000002000E001C19142FCD1194988471949E9
:1002200088471949884700BEFDE701C901C29A42C3
:10023000FBD3704774A80010C0000020A40C00205D
:1002400058B40010000004200000042058B400102E
:1002500000100420001004200000000070470B482C
:1002600002F004FE0047EFF30580C0B270470000C3
:1002700008ED00E0000000D0A80C0020B81000201D
:10028000111300105D0300103514001057560000C4
:1002900006005250ABB36053D09E0010060052507F
:1002A000861C0302E09E0010060052505422A29DBC
:1002B000E89E001005005250DE65F46858B4001046
:1002C000F8B5C0460448054B10B5834203D0044B33
:1002D000002B00D0984710BDA40C0020A40C0020D7
:1002E0000000000006480749091A8B10C90FC918F9
:1002F00010B5491003D0044B002B00D0984710BD17
:10030000A40C0020A40C00200000000010B5074C35
:100310002378002B09D1FFF7D5FF054B002B02D026
:10032000044800E000BF0123237010BDA80F002087
:1003300000000000C89B0010054B10B5002B03D037
:100340000449054800E000BFFFF7CCFF10BDC046E0
:1003500000000000AC0F0020C89B0010F0B5204C3E
:10036000204EA54403F08AFF192000F05FF8D02347
:1003700080221B0692041C4D1C4C1D4F5A6269467C
:10038000280004F08DFC684603F0A0FE6B461B8835
:10039000A34214D0009BB3421BD0BB42EFD16A46AC
:1003A000144B92889A42EAD16B469B79002BE6D196
:1003B000114802F05BFD00210300002098476B46C6
:1003C0009B78002BE6D1D02380221B0692045A6131
:1003D000D5E7D02380221B0692049A61CFE7C0465E
:1003E000FCFBFFFF4F464600C89B00104F4E00002D
:1003F0005245424F4F54000055420000094A8300C5
:1004000094464022634410B51C68C0006240C0247A
:1004100014408022520113431C60034B9C466044ED
:10042000416010BD04C00140004001400123D022C2
:100430008340120693629361094A830094464022E6
:1004400063441968C0004A40C02111408022520113
:1004500013431960034B9C46052360444360704777
:1004600004C001400040014070B5EFF3108C72B63B
:100470000D4D2B68002BFCD0BFF35F8F0724CB08FA
:10048000C618C05C01230C40A3401C00044003427A
:1004900007D103433370BFF35F8F2C608CF3108858
:1004A00070BD100000F0E2FF2C0100D0024B186874
:1004B0008007C00F7047C04600C006400021044BB3
:1004C000044ABFF35F8F02C39342FAD17047C0461C
:1004D000000100D0800100D0044A1078431CDBB238
:1004E000172B00D9102313707047C0462402002038
:1004F00001238340002904D0034A1360034A136098
:100500007047034A1360FBE780E200E000E100E08F
:1005100080E100E0024B10309B688000C0587047BB
:1005200000ED00E070B50D00EFF3108672B60F4AD3
:100530001368002BFCD0BFF35F8F0D4B10309B680E
:1005400084001B590B4A934203D09D4201D000F016
:10055000A5FF074B9B681D51BFF35F8FBFF35F8FF4
:100560000022024B1A6086F3108870BD240100D06F
:1005700000ED00E0CD010010F0B5DE4657464E46D6
:100580004546E0B50C0083B0EFF3108A72B65A4AC4
:100590001368002BFCD0BFF35F8F1022914681447B
:1005A0004A46564B96009B689D59554B98469D422E
:1005B00005D0A54216D0534FEB1B2F2B14D94F4B10
:1005C0009B689D51BFF35F8FBFF35F8F00224A4B43
:1005D0001A608AF3108803B0F0BCBB46B246A94645
:1005E000A046F0BD1D00EAE7012383409B465A4622
:1005F000454B1B681A4000925A46444B1A60BFF3A1
:100600005F8FFFF730FE0190002803D0814501D0B5
:1006100000F044FF01232A009A4393689C4208D1CA
:100620005FE04B005B189B00FB189968A14211D05A
:100630001A00062151560029F3DA009B002B05D041
:100640005A46334B1A60304B1A60B8E75A462F4B64
:100650001A60B4E706215956002921DB4A005018D8
:1006600080003C188046A0689860E079D871062028
:1006700020569871002824DBA488F81A64052415F4
:1006800044440019E0240005400D240220439880D2
:100690005218204B9200BF181A781970BA71CCE723
:1006A0000199002910D1FF3191711B49918019499D
:1006B0000A789A71194ADB1B5B415A43120D0A7082
:1006C000BBE7BD200002E2E7154A1649D21A083AF4
:1006D0005002400D01439980134952080A43DA80C1
:1006E000ABE70621515613000029B7DA019A002A18
:1006F000EAD14546DBE7C046240100D000ED00E02A
:10070000CD0100102802002000E100E080E100E0BF
:1007100080E200E0B510002000BDFFFFAAAA0000A3
:100720006202002000F0FFFF00F8FFFFF8B501258E
:1007300004000543FFF797FDEFF3108C72B6214AD2
:100740001368002BFCD0BFF35F8F1F4E2100B768EA
:100750001E4A1F4B891A49414B431B0D59B2830056
:10076000F858A8421CD00623D3568B421CD0122323
:10077000D3568B4222D01E23D3568B4220D02A231D
:10078000D35603208B4210D0124B1A781970A271E5
:10079000BFF35F8F00220B4B1A608CF31088F8BDFB
:1007A000B2680D48D050EFE7002043001B189B00B3
:1007B000D218FF239371094B9380E5E70120F4E7FA
:1007C0000220F2E7240100D000ED00E02802002022
:1007D000AAAA0000B5100020CD01001000BDFFFF47
:1007E000054B064A1360064A136053609360D3605A
:1007F00013615361936170478080808000E400E062
:1008000004E400E0024B9C466144890001607047AB
:100810004000003483680B4810B58446614462444C
:10082000090112019A18591854684B6801209C421A
:1008300001D802D00020C0B210BD12680B689A42E5
:10084000F9D8F7E7FFFFFF0FF8B557464E46454684
:10085000DE46E0B599460CAB1C780DAB1B78060064
:1008600090469A460768002C11D1BC7B002C42D0E0
:1008700065003B682D19033D59194B78BB73002B5C
:1008800000D1FB7300238B704B700B7004E065008C
:100890003B682D19033D5919B2682A4B94464246CC
:1008A000E3181B0163441A604A465A600A9A9A6028
:1008B0000B9ADA6000238B704B700B707B7B9B462E
:1008C000002B2BD022005946B8687B6898473A68BD
:1008D000002816D05B4658465B005B445519033B25
:1008E000A870D118D35C002B00D06B705B460C70E5
:1008F0007B73A34513D0F0BCBB46B246A946A046C5
:10090000F8BD5B465B005B44033BD3189C705119F8
:10091000525D002A00D05A705B460B707C734246D1
:100920004B46307D00F008FA051E06D05346002BDA
:1009300003D12100306800F021FC0E9B002BDAD09F
:100940001D70D8E7FFFFFF0FF0B5DE464E46574655
:1009500045460023E0B58DB00A936B4B8200D35817
:100960000B90994600239B464B46079300F06AF98B
:10097000079C06000F006268EFF3108572B61368DB
:10098000002BFCD022000794BFF35F8F2468637BA9
:100990009946002B67D092685C4B90464B441B01F4
:1009A000984443461A685B6810001900801BB941DF
:1009B00000295FDD0B9800F0BFF900230026984660
:1009C00000279A46079C6368BFF35F8F5A461A60F8
:1009D00085F310885346002B08D10028C6D10DB0EE
:1009E000F0BCBB46B246A946A046F0BD0A9B4146B4
:1009F00018024B461843D047089009916268EFF3FC
:100A0000108572B61368002BFCD00794BFF35F8F7C
:100A10000899099A002A48DB114303D0079B1B69F8
:100A2000002B5DD1079B1B68D97B002907D04A00AA
:100A3000521819688C4649466244033A51704A4636
:100A4000DA734B46079A013BD168CA5C0132CA543B
:100A50005B46079A13615368BFF35F8F5A461A606B
:100A600085F3108882E700230026984600279A46DF
:100A70000020A7E7002901D100289BD100212000F8
:100A800000F0FEFA43461E685F689B68079A9A4624
:100A90004346DB689846D3684B44013B1B780A9376
:100AA0001B020343136100208CE72369002BB9D09C
:100AB00033003C005B1A94411A002300A74219D866
:100AC0009F421BD05946049101210391494602914E
:100AD00041460191514607980091FFF7B5FEB7E7EF
:100AE00000F0B0F8089A099B06000F0092197B41AC
:100AF0009942E5D901225242D317E3E79642E1D960
:100B000001225242D317DDE784100020FFFFFF0FC0
:100B100010B5124C6368002B04D00A211048FFF76F
:100B200071FE10BD23000F4A1021206800F0C6F9A5
:100B3000032000F07BF8032000F06EF903200A493F
:100B400000F0B4F8FFF7C8FC084B9C460323604450
:100B50002375074B80006060DC60DEE770020020D8
:100B600098100020150800104909001040000034BA
:100B700084100020F0B5D6464F464646C0B5EFF388
:100B800005833F22134018001038EFF3108C72B623
:100B9000204D2A68002AFCD0BFF35F8F012211008C
:100BA00081401D4C884661631C4917000E788A46B7
:100BB0003100C1400F400A4209D1BFF35F8F2F605F
:100BC0008CF31088E0BCBA46B146A846F0BD144983
:100BD0008200646A51588C420FD3124BD25843465C
:100BE0009E4353461E70BFF35F8F00232B608CF330
:100BF0001088002AE6D09047E4E70B4A9B00904615
:100C000043441A681A60BFF35F8F00232B608CF394
:100C10001088D7E7280100D000400540B61000201A
:100C20009C100020FC0F0020D03F054010B50100B3
:100C3000024A0348FFF718FC10BDC046E89B0010AD
:100C4000B4100020034B596A0A00986A596A8A4214
:100C5000FAD170470040054070B504000D00124AFB
:100C6000536A1900966A536A8B42FAD13000190010
:100C700024184D41AB4211D80ED02B000A494A6AC4
:100C80009A42FCD307D1084A02E0516A994202D144
:100C9000916AA142F9D370BDA642EED90123012485
:100CA0006442E5175B42E9E70040054070B5040087
:100CB0000D00EFF3108672B61A4A1368002BFCD0B1
:100CC000BFF35F8F002D1BD02000FFF723FC1649D8
:100CD00081420AD02000FFF725FC01212000FFF708
:100CE00007FC0123A340114A1360114BA400E550F7
:100CF000BFF35F8F00220B4B1A6086F3108870BD24
:100D00000B4BA200D5500122A2400A4920000B78CB
:100D100093430B700449FFF72FFC00212000FFF7DD
:100D2000E7FBE5E7280100D0750B001038600540AF
:100D3000FC0F0020B6100020F0B54F46D6464646C0
:100D4000C0B507002F4C616A0D00A66A616AA9420E
:100D5000FAD18B4208D805D00120E0BCBA46B14692
:100D6000A846F0BDB242F7D9EFF3108A72B6264812
:100D700001680029FCD0BFF35F8F0125BD402349E6
:100D8000204C8846097889462943C9B28C46414699
:100D900060460870391D1E48890065630A51B90014
:100DA0000B50216A0020294219D0616A0800A66A06
:100DB000616A8142FAD18B4219D801D1B24216D868
:100DC000CC451DD00F4B1F201D625D6301230740E2
:100DD000BB40104A1E38136043464A461A70BFF3A0
:100DE0005F8F0022084B1A608AF31088B5E7002055
:100DF000BFF35F8F0022044B1A608AF31088ACE7C0
:100E00000120ECE700400540280100D0B61000208A
:100E10009C10002080E200E0EFF3108C72B60A49CB
:100E20000B68002BFCD0BFF35F8F01238340074A80
:100E30000748136202789A430270BFF35F8F002362
:100E40000B608CF310887047280100D000400540EB
:100E5000B610002070B5050014001600002915D04A
:100E60000C00002A12D080686B6898472968002817
:100E70000ED073009B196200033B1219CB18033A82
:100E80009C7088188A5C002A15D10670200070BDFD
:100E900063001B197200033B9219CB18033A9E7032
:100EA00088188A5C002A02D104703400EEE75A7078
:100EB00004703400EAE75A700670E7E730B58360E3
:100EC0000023CCB243730133047342608373C47351
:100ED0000D000068012C06D9421C0133DBB21370EF
:100EE00003329C42F9D1FF2129404B0059180023BD
:100EF00040180338437030BDF8B5CE46474606006B
:100F00000C0080B5002907D04D0003686D18033D23
:100F10005A195778002F04D12000C0BCB946B046FA
:100F2000F8BD7900C9190339884643445978894680
:100F300000215970517073683A0021008068984709
:100F40003368002814D042469A18947059195B5D92
:100F5000002B00D053700F70270049463000FFF778
:100F6000CBFF390002003000FFF774FF0400D3E725
:100F7000424641465D19AF709A185B5C002B00D069
:100F80006B701470E9E7C046F0B557464546DE463B
:100F90004E46E0B50D006B0001685B19DF1E0400D2
:100FA000C85D83B00192CA1900284CD043001B18B9
:100FB000033BCB185E78B446002E16D1019E002E5E
:100FC0003ED0E67B002E04D073009B19CB18033B68
:100FD0005D70E57300282FD10023537003B0F0BC7F
:100FE000BB46B246A946A046F0BD72006244033A31
:100FF00089184A78904600224A7091465A7001003A
:1010000032002000FFF726FF43468246002B07D020
:101010005B0021684344033BCB185A78002A16D161
:10102000424651462000FFF715FF2168019BCA196F
:10103000002BC6D10028CFD043001B18033BCB1890
:1010400000219970C8E7019B002BBAD1C4E750007A
:101050008018033809184878834648464870587005
:1010600041462000FFF7F6FE594680462000FFF774
:1010700043FF414602002000FFF7ECFE8046CFE729
:10108000F0B557464546DE464E46E0B583B0019181
:10109000457B04006B0000685B19DF1EC15DC2194F
:1010A00000294ED04B005B18033BC3185E78B44652
:1010B000002E18D1019E002E40D0E67B002E04D0D9
:1010C00073009B19C318033B5D70E573002931D190
:1010D000002328005370617303B0F0BCBB46B246D6
:1010E000A946A046F0BD72006244033A80184278D7
:1010F00090460022427091465A7020003200FFF75D
:10110000A9FE43468246002B07D05B00216843447A
:10111000033BCB185A78002A17D14246514620008B
:10112000FFF798FE019B01002068C219002BC4D173
:101130000029CDD04B005B18033BC31800209870EA
:10114000C6E7019B002BB8D1C2E7500080180338D6
:101150000918487883464846487058704146200030
:10116000FFF778FE594680462000FFF7C5FE41464E
:1011700002002000FFF76EFE8046CEE770B5040047
:1011800000292CD0437B8B422ED0056848004018A4
:10119000033828188278002A21D053009B18033B7B
:1011A000EA5CEE188A4202D11BE0002A08D0530004
:1011B0009B18033BEB185A788A42F6D142785A7052
:1011C00000230122837043702000FFF7DDFE617B66
:1011D00002002000FFF73EFE6073012000E00020C7
:1011E00070BD43783370EBE701221900FFF7CCFEA6
:1011F00060730120F4E7C04610B50400FFF76CF9F6
:1012000001002000FFF7FEFAFF232371BFF35F8F79
:1012100010BDC04610B50400FFF75EF901002000C4
:10122000FFF7F0FAFF23A380BFF35F8F10BDC04626
:10123000F8B5040006200D0000F094FA002844D010
:101240002A4B2B49E21853425A418023DB039C4628
:101250009205284B62441A60274B1A6010008B6875
:101260009843FBD1214B8021E3185A425341234A32
:101270005B0049009952062000F074FA2900C00072
:1012800001F04EFEC30921D140270121260080250F
:101290006162A36200232C36AD0135432B6006202A
:1012A00000F060FA3900800001F03AFE6023E26A43
:1012B00053406E221A4080235B0133431A60104B67
:1012C000236310232B600D3BA364F8BD0D4A9342AA
:1012D00003D900230C4F0D49D8E77F22104001307D
:1012E00040089F0119003F180300CFE70080FCBFB2
:1012F00000C0004000E0004000F00040AC100020C2
:1013000001030000FEFF0000C0FF3F00FFFF0000E0
:101310002C4B2D4A70B51A602C4A2D4B2D491A6062
:1013200014008B689C43FBD12B4D2C4EB54208D248
:10133000013E761BB60808CD984723000134B3421E
:10134000F9D100F0B1F8264A214B1A60214A93687E
:10135000DB43DB01DD09002BF9D14022214B224C7C
:10136000224E9A675A671A67DA66B44208D223682F
:101370002000002B20D00834FFF74CFFB442F6D3F6
:101380001B4E1C4CC022A168300002F069FDA66013
:10139000FFF794F8FFF724FAFFF7BAFB164C174E45
:1013A000B44208D2013E361BB60808CC98472B0041
:1013B00001359E42F9D170BD0834FFF71DFFB442DC
:1013C000D5D3DDE700E00040BFCDFBFEFE7F3C0053
:1013D00000F0004000C00040900C0020A00C002055
:1013E000FFFFFF0100F00140880C0020900C00205E
:1013F0000000002000ED00E0A00C0020A40C002064
:10140000094A03001068002805D00849C3188B4218
:1014100007D81360704706480449C31810608B4210
:10142000F7D901204042F5E77C100020000004209D
:10143000B810002000BEFDE710B50C0082B0190006
:10144000002A09D0064B01920093020023000548B0
:1014500001F0CCFC00BEFDE7034B1A00F3E7C046E9
:101460000C9C00101C9C0010189C00100FB400B5C0
:10147000084883B002F02AFE049B002B07D005A980
:101480001800019101F0D2FC034802F01FFE00BEDB
:10149000FDE7C0464C9C00105C9C001010B5014854
:1014A000FFF7E4FF609C001030B50C2083B000F023
:1014B000B7F9FEF7FBFF00280ED0944B944A1A6050
:1014C0005A609A60DA601A615A619A61DA611A6246
:1014D000904A5A6203B030BD8F4CA06700F0A8F963
:1014E00001228E4B1A60636C012BFCD103228C4BC2
:1014F0001A60894A936B012BFCD101330121894A7F
:1015000089480093043300F033F90523874A009398
:101510000121874800F02CF9864B5A68FF2A02D82F
:10152000802252005A608022784C7D4B2169120142
:10153000804D1A60002905D0606901F0F1FC01308E
:101540000138FDD1E0217B4B02201A681140802236
:1015500052012A431160196848400321014011607B
:1015600004219A681142FCD08022802192012A43F2
:1015700009011160802252005A606F4B23616F4B4A
:101580005968FF2900D85A600321644A6B4B1160E7
:1015900002399A681142FCD0E0201A68104080227B
:1015A00052011A431060186848400321014002208C
:1015B000116062498A681042FCD080229201134374
:1015C000802212011A6080225D4B52004A606361E2
:1015D0005C4B5968FF2900D85A6080225A4BE16958
:1015E0001201584D1A60002905D0606901F098FC7D
:1015F00001300138FDD1E02252490B681A408023A6
:101600005B012B431A60802380229B012B43120134
:101610001A6080223E4B52004A60E3614B4B59688E
:10162000FF2900D85A608022494B216A1201474D98
:101630001A60002905D0606901F072FC01300138A0
:10164000FDD1E02241490B681A4080235B012B4306
:101650001A60802380229B012B4312011A60802391
:1016600080225B004B602A4BD2022362394B5968BF
:10167000914200D25A608022374B616A1201354D87
:101680001A60002905D0606901F04AFC0130013878
:10169000FDD1E0222F490B681A4080235B012B43C8
:1016A0001A60802380229B012B4312011A60802341
:1016B000DB024B60174B6362284B5A68FF2A02D843
:1016C000802252005A608022254BA1691201234DCD
:1016D0001A60002905D0606901F022FC0130013850
:1016E000FDD1E0221D490B681A4080235B012B438A
:1016F0001A60802380229B012B4312011A608023F1
:101700005B004B600E4BA361E4E6C0460C1000206A
:10171000006CDC021BB70000008000403CB00040C1
:1017200030B00040002F685900800240008C86478E
:1017300000C0024030800040001BB7003C800040E9
:10174000405973075480004054B00040608000400E
:1017500060B000406C8000406CB0004048800040A9
:1017600048B00040014B8000C05870470C1000206A
:10177000F0B5C646040000B50C2090461F000E00D0
:1017800001F0CEFB4101091A8D01691AC90009183F
:101790008901404601F0C4FB069B3F041A032368FD
:1017A0001743002B22DB1A4B1A4DE21853425A41C1
:1017B00080235B019C461203174B62441A60174B4F
:1017C0001A601100AB689943FBD1C022231D92011E
:1017D0001A4321232660A06013602368002BFCDAE3
:1017E0000823E760136080BCB846F0BD3F23226841
:1017F0001340B342D7D1A3681B051B0D8342D2D13E
:10180000EE22E368D2021340BB42CCD1EBE7C046E4
:101810000040FDBF00C0004000E0004000F000407C
:101820008023024A9B000343D36270470080054037
:10183000AA23064A1B0113602F230549D360054BD9
:1018400019605368002BFCDA7047C0460040024024
:1018500000B0FA00006002409A4200D288547047FB
:101860007047C046F8B557464E464546DE46E0B599
:1018700099460A9B07009A460D9B88469346150099
:101880000B9E9B0710D10C9B9E420DD29D1B1400FA
:101890000E005D4422004B46013431002020B84741
:1018A000A542F7D1B0460B9E002E27D044467519AD
:1018B0005346AA1B013E985D21004B46B847002EB7
:1018C000F6D123002C0098460D9B9B070FD55B4655
:1018D000E51A0C9BAB420AD94646984622004B4675
:1018E000310020200135B8470134A845F6D8200042
:1018F000F0BCBB46B246A946A046F8BD2C00E3E7C3
:10190000F0B54F464646D646C0B584B098460EABB5
:101910001B78129F994694460D9C109B119EBA0706
:1019200025D4002E4BD19C4200D3BFE001223A4087
:1019300092461F2C00D9B8E00C9A551E302201E0C7
:10194000202C03D001342A55A342F9D85246002A4C
:101950000DD0A6420BD9202C44D00C9A551E302213
:1019600001E0202C3ED001342A55B442F9D1FA06C8
:101970004DD57A053FD4002C39D10F9B102B00D1C7
:1019800079E00F9B022B00D18AE030230C9A0124CE
:1019900013704B46002B3FD02D230C9A1355013466
:1019A0000C9B624600930397434602960194FFF70F
:1019B00059FF04B0E0BCBA46B146A846F0BD0122CA
:1019C00015003D40AA463A422FD04A46002A02D18D
:1019D0000C323A4200D0013E9C42BAD21F2CABD905
:1019E000202E27D92024FA06DAD57A0503D4A3427B
:1019F0002DD0A6422BD00F9B102B32D0022B20D003
:101A0000202CCDD030220C9B1B191A700134202CB5
:101A1000C6D04B46002BBFD17B070DD43B07BFD5AB
:101A200020230C9A13550134BAE79C429FD21F2CF5
:101A300000D881E720249AE72B230C9A1355013410
:101A4000AEE7202CACD00C9B1B1901343AE0631E8E
:101A5000012C92D00F9A102A2AD0022A2FD01C00D3
:101A6000D0E7BB060ED4202C9AD00C9B1A19013457
:101A700078231370C4E7BB060DD478230C9A012495
:101A80001370BFE7202C00D18AE758220C9B1B194A
:101A90001A700134B4E758230C9A01241370B1E78B
:101AA0000C9A603301241370ACE7202400265EE713
:101AB000023CBA06E9D40C9A12191C00D8E70C9A19
:101AC0009246534462221A709AE7C04610B5002825
:101AD00000D110BD02F0AAFAFBE7C046F0B5DE4621
:101AE00057464E464546E0B59BB09B46249B8946EB
:101AF0009846259B0B900C924046424619009A4608
:101B000001F0E7FC002800D0D8E001224046514611
:101B1000774B524201F0D8FC002800D0CEE00122E1
:101B200040465146734B524201F0B8FC002800D0A9
:101B3000C4E0002200234046514601F0AFFC0028DB
:101B400000D0B9E1424653460A9209938023289A6D
:101B5000DB001A400E92289A1A4201D106232693DE
:101B60000A9A099B1600134300D0C7E0289B002562
:101B700000261B0500D49BE100230D93269A0D9BA4
:101B80009A4200DC9FE1D01A431E26938023289AB4
:101B9000DB001A430023002728920D93279B002483
:101BA000BB4200D9DC1B0223289A1A400E92289AC5
:101BB000134203D07B427B415B421C400D9B002BB8
:101BC00007D00A9809992A00330001F0FEFB0A9019
:101BD0000991002200234046514601F05FFC002895
:101BE00005D0802000068446099961440991289A0D
:101BF000414B0B9D13400493269B0A9A0293099B29
:101C000003940092019349465B4628000C9A00F029
:101C10008BF90400002F62D0289B220098061F2316
:101C2000C0179843631C984649465B466530A847F1
:101C30000D9B0025DA179C18DB0F9A465440013F94
:101C400001E0202D13D00AAA94461F2320006344EC
:101C50000A2101355E1901F063F93031317020003D
:101C60000A2101F05DF926000400092EE9D80523B8
:101C70000693002304930A330393534605970B9F5F
:101C8000029312AB009342465B46494638000195E9
:101C9000FFF736FE0E9B0400002B20D00C9BC51ACC
:101CA000279BAB421BD91E0022005B4649462020E1
:101CB0000135B8470134AE42F6D810E0289B4246C1
:101CC0000493279B49460393269B0B980293534604
:101CD000009201935B460C9A00F026F90400200064
:101CE0001BB0F0BCBB46B246A946A046F0BDC046FC
:101CF000FFFFEF7FFFFFEFFFFFF7FFFF734B099F32
:101D00009C467800400D604401F0F6FB704A714B30
:101D100001F079FB704A714B01F04EFB3B03704AB6
:101D20001B0B1A4304000D00300011006D4B002204
:101D300001F039FB6C4A6D4B01F065FB02000B00B2
:101D40002000290001F038FB01F0EEFB0D9001F0BE
:101D5000D3FB674A674B04000D0001F054FB0022DF
:101D6000654B01F029FB01F0DFFB644A0600644B80
:101D70002000290001F047FB040030000D000F9601
:101D800001F0BAFB5F4A604B01F03DFB02000B0023
:101D90002000290001F007FB02000B0006000F00E5
:101DA00001F031FB320004000D003B00300039002F
:101DB00001F002FB002210901191544B20002900E9
:101DC00001F003FB0022524B01F0F6FA02000B0077
:101DD0002000290001F0F9FA00224E4B01F0ECFA44
:101DE00002000B002000290001F0EFFA0D00802115
:101DF000040032003B000020C90501F0D4FA0200C3
:101E00000B002000290001F0D7FA02000B00109807
:101E1000119901F0DAFA0022314B01F0CDFA3E4B74
:101E20000F9C9C4664440022230501F0ECFA050057
:101E30000E0002000B000A98099901F02FFB002800
:101E40000AD00D9B2800013B31000D930022304B3E
:101E500001F0BBFA05000E00C6270D992B00633177
:101E60008F42BF4128997F420437090500D495E687
:101E7000334300D182E6099C284A2100284B0A9866
:101E800001F01AFB002808D000222100254B0A98F7
:101E900001F004FB002800D070E6269B002B00D147
:101EA0007CE60E9B5A1E9341269AD31A269375E61A
:101EB000002304270D9371E643460A9380231B06F3
:101EC0005344099342E6002326935FE601FCFFFF9B
:101ED000FB799F501344D33FB3C8608B288AC63F19
:101EE0000000F03F0000F83F61436F63A787D23FD7
:101EF00071A379094F930A400000E03F1655B5BB26
:101F0000B16B0240EF39FAFE422EE63F00002C4052
:101F10000000244000001840FF0300002D431CEB8C
:101F2000E2361A3F80842E41F0B54E46DE465746D3
:101F30004546E0B597B09946209E219F229B834657
:101F4000984607910C923B0032003000390001F0B6
:101F5000C0FA002800D0A9E1012230003900CA4BA4
:101F6000524201F09BFA002800D0E1E0012230004B
:101F70003900C64B524201F0A7FA002800D0B7E062
:101F8000002230003900C24B01F09EFA002800D038
:101F900099E0002230003900BE4B01F07FFA0028A2
:101FA00000D090E0002200233000390001F076FAE2
:101FB000002800D0B1E000230D93249B5B0501D4E1
:101FC0000623984608AB9C4617220024302341463E
:101FD000624404E0013413550139202C01D0092951
:101FE000F8D888463000390001F09EFA4346DA00FE
:101FF000A94B05009B181A685B680892099301F0C9
:102000007BFA02000B003000390001F0CCF9089A8D
:10201000099B01F0F8F90A900B9101F0A9FA8246A8
:1020200001F066FA02000B000A980B9901F0BBF967
:1020300000229A4B0A900B9101F046FA002800D139
:10204000C0E001239C46E244504601F051FA0200F0
:102050000B000898099901F027FA002802D0002304
:102060009A4601354346002B6AD008AB17269C469A
:1020700008956644554614E001235B4243440A2117
:1020800028009A4600F04CFF01343031371939707E
:1020900028000A2100F044FF092D00D8D0E0D046E6
:1020A0000500202CE8D10EAB98460323249A134058
:1020B000012B00D196E02023249A01930392239AC6
:1020C000434602921EE0249B58460493239B0096AD
:1020D0000197039343460C9A029307994B46FFF7E7
:1020E000FDFC17B0F0BCBB46B246A946A046F0BD09
:1020F000249B5B070ED40322694B24990192039120
:1021000023990291009358464B460C9A0799FFF782
:10211000A9FBE6E70422634BEFE73B003200002017
:10212000002101F040F9012306000F000D9344E760
:10213000249B0393239B0293042301935A4BE1E7CF
:10214000280001F0D9F902000B003000390001F03D
:102150002AF9524B002206000F0001F09FF90EAB46
:10216000984600280AD10022300039004B4B01F07C
:10217000ABF9002802D1EB0700D50135202C94D013
:1021800008AA94461723280063440A2101341E1923
:1021900000F09EFE3031280031700A2100F098FED8
:1021A000051EEBD10323249A1340012B1BD0202CB6
:1021B00000D180E70D9B002B35D02D224146631CBA
:1021C0000A5579E700220A980B99344B01F066F919
:1021D000002800D046E75346002B51D101239C46EE
:1021E000E2443FE72024239B002BE0D00D9B002BF3
:1021F00003D1249A0C33134202D0239B013B239337
:10220000239BA342D3D908AB9C46172230236244B8
:10221000202C00D14FE72399013413558C42C6D0AE
:10222000202CF8D147E7249B5B0724D4249A230071
:10223000120700D440E72022414601330A553BE70C
:102240005746089D202C00D12DE722003021404622
:10225000002F09D00132B154202A00D123E7D34303
:102260001B191B18002BF5D10EAB98462E234146A7
:10227000541C8B5482E72B224146631C0A551BE7F2
:10228000DB0700D4EEE6A9E7FFFFEFFFFFFFEF7FDC
:1022900065CDCD4165CDCDC1689E00100000E03F09
:1022A0006C9C0010709C00107C9C0010249B03937D
:1022B000239B029303230193004B23E7789C001098
:1022C000F0B5DE464E4657464546E0B59FB01C0089
:1022D000289B91460993C94AC94B8B4608901A60BE
:1022E000002900D118E2002320789A46002800D166
:1022F0001AE226001D005C460AE02A006F1C4B46CD
:10230000089D2100A8473D0001363078002870D094
:102310002528F2D110239B46083B9A46043B984659
:10232000023B00219C46721C107816000300203BE3
:10233000DBB2102B03D8B34F9B00FB589F46030022
:10234000303B092B32D900230A932A2868D0002376
:1023500098462E283ED00300683BDBB2122B1CD8D7
:10236000A94A9B00D3589F46012301321943DBE75A
:10237000634601321943D7E7434601321943D3E795
:102380005B4601321943CFE7534601321943CBE78D
:1023900080235B007078194301360300253BDBB2D4
:1023A000532BAAD8994A9B00D3589F460027030075
:1023B000B800C01901364000C018337830381A0010
:1023C000303A0700092AF3D90A90180000239846EA
:1023D0002E28C0D180237078DB0019430300303BE6
:1023E000721C092B00D8A1E12A2800D1B2E1160005
:1023F000B1E7A346AA462C00D14503D801235B428E
:102400004B449A464B46524659460020089DA847E1
:1024100020001FB0F0BCBB46B246A946A046F0BDA6
:10242000099B40CB0A96002E03DB50780993561C7B
:102430008DE72838014370420A9009935078561C62
:1024400085E7782800D1DFE1582800D14CE26F28D9
:1024500000D14FE3622801D100F030FC10230A00C4
:102460009A430B92692801D000F0A9FC0A230C932F
:102470004B0500D5D0E10B9A802311009B00194039
:102480008B461A4200D0A1E2802311005B00194064
:102490008A461A4200D0B6E313005B0600D5EDE28F
:1024A000130009991B0601D400F076FC08C91BB281
:1024B000D8171A18424092B209919346DA0F129235
:1024C000002B09D1802310220B99DB000B40914394
:1024D0000B91002B00D0E4E20B9A6123920600D509
:1024E00041230EA91F228C46DBB262440A3B5F46A1
:1024F0001395A34655460C9CB2460D9316000AE070
:102500003033DBB201357355A74200D2EDE2202D06
:1025100000D1EAE207002100380000F001FDCBB253
:102520000929EDD90D9A94466344DBB2EAE780238A
:102530009B007078194301362FE77078682800D126
:10254000CDE180230136194327E770786C2800D14C
:10255000BFE180235B00194301361EE7462800D106
:102560009BE10722099B0491073393430A9A1900C0
:102570000392424602920CC9089800920193099175
:102580002A004B462100FFF7CFFC01360500BCE6D0
:102590002A006F1C4B46089D21002520A8470136C4
:1025A0003D00B2E68B0700D4ADE1099B2A009A46B4
:1025B0006B1C9846534601CB21009A46089F4B4618
:1025C000C0B2B8470A9B9C466544012B00D886E2FE
:1025D000089B4746B04626004C4699463A002300E1
:1025E000013731002020C847AF42F7D1A1465346FA
:1025F000340046460993013687E6C046C1220010E2
:1026000080100020849C0010C89C0010149D0010B5
:10261000099B04CB9B4643460992002B00D1C6E0A0
:1026200013789C46002B00D1BDE34346013B099A39
:102630000133D0180A9F130001E0834203D05A7877
:102640000133002AF9D1099A0A979B1A0B93802328
:102650000A00DB001A400C92194204D00B9B434540
:1026600001D943460B9302231A000A400D920B42F4
:1026700000D187E16046002800D168E10C9B002B67
:1026800000D10DE1A844C246099B57465B1B984602
:10269000089BB2462A0026004C46994609E02300D2
:1026A0003100551CC8474346585D002800D126E13B
:1026B0002A009742F3D1A1463D00340056460D9BB7
:1026C000002B00D043E15B46013609931DE6099BD0
:1026D0001A0008CA9246002B48D0212211438B468B
:1026E0000EA884461F216144099500220F27A446A5
:1026F0000D0002E0202A0CD00B003C001C40200002
:102700003730092C00D807380132A85419090F2B8B
:10271000F0D86446099D32E0DC4B20780893002312
:102720009A46002800D0E4E5002465E6434606000A
:102730000A9F9800C01801324000801916780300E3
:1027400030003038303B0928F3D930009846160065
:102750000A9700E6099B023604CB9046D2434046D6
:10276000D2171040804609933078F4E51022080013
:10277000904311321043834600224905B0D55B4691
:1027800006930823059343460493102303930023E1
:10279000029316AB019200932A004B462100089841
:1027A000FFF7AEF85346050001360993ADE51378FF
:1027B0009C46002B00D1F7E202235B4237E720233F
:1027C00002009A43472A04D180231B0119430223A4
:1027D0009843452801D1202319430722099B0491DE
:1027E000073393430A9A19000392424602920CC996
:1027F00008980092019309912A004B462100FFF7A7
:102800006DF90136050080E510230C930C230A00B6
:102810009A430B924B0503D501230B9A9A430B92D3
:10282000692800D127E6642800D124E60B9A80238A
:1028300011009B0019408B461A4200D066E18023AC
:1028400011005B0019408A461A4200D039E2130099
:102850005B0600D53CE113001B0600D4A6E2099BF1
:1028600004CB1204120C934609935B46002B00D054
:102870009AE10B9A1033110099430B91520500D441
:1028800092E100239A460B9B06930A9B05934346CD
:1028900004930C9B039300230CE12023194360E66F
:1028A000099B0A9A5B1B98464B4691461F00B2460D
:1028B0002600089C2A003B003100A0474346013512
:1028C000585D0028F6D14A463400B94656460A9269
:1028D000F5E6C0239B00B078194302365DE5C023BE
:1028E000B0781943023658E50C230A009A43143392
:1028F0001A43103B0B920C934B058DD496E7A146DF
:1029000034005646DBE60A9A012A00D853E26B1ED1
:102910009F18089BB04626004C4699462A00230083
:10292000013531002020C847BD42F7D1A14634000F
:102930004646099B3A0001CB210098467D1C4B4638
:10294000089FC0B2B847434601360993DDE40B9BAC
:102950000A9AA8469A4200D8B5E694466544ED1A0C
:10296000089B4746B04626004C4699463A0023004D
:10297000013731002020C847AF42F7D1A1463400CB
:102980004646A0E60B9A0A99531C914200D814E2DD
:102990004B199B1A1F00089BB24626004C469946CD
:1029A0002A002300013531002020C847BD42F7D15D
:1029B0000A9BA14601330B93099B34001B785646B2
:1029C0009C466046002800D058E67CE60722099B1A
:1029D00007339343013294469C4462465F680992F0
:1029E0001A68FB1710931193109811990300534024
:1029F0000E930B007B400F9394460E9A0F9B121A76
:102A00008B410E920F93FB0F6246129300233A43C1
:102A10009B463DD00B9A6123920600D541230022AC
:102A2000DBB20EA90A3B8C4692460D9343461F32F9
:102A300062441395159655460E9E0F9FA2469046EA
:102A40000C9C14930CE03032D2B2434601355A55F7
:102A5000BB4500D18AE1202D00D18AE106000F009C
:102A6000220000233000390000F09CFAD2B2092A7B
:102A7000E9D90D9B9C466244D2B2E6E7FF2309994F
:102A800004C913401A00099117E5C04661180010E7
:102A90000B9A1033110099430B915205BAD50023BC
:102AA0009A460B9B06930A9B0593434604930C9B03
:102AB0000393129B02935346019316AB2A00009393
:102AC00021004B460898FEF71BFF013605001CE469
:102AD000FF22099B02CB11408B460993C5E6534662
:102AE000454609930136FFF710FC56465C46AA4658
:102AF000139DD6E708230C930B910B99642800D003
:102B000084E60B9B5B0500D586E6B4E40722099BAF
:102B100007339343013294469C44624609921A68F3
:102B20005B6810009B4613005A46134307D10B9A6B
:102B30001033110099430B91520500D5A1E60B9A71
:102B40006123920600D541230022DBB20EA90A3B85
:102B50008C4692460D9343461F3262445F4612955F
:102B6000A34655460400B24690460C9E13930DE0D2
:102B70003032D2B2434601355A550023BB4200D110
:102B800000E1202D00D100E104000F0032000023FD
:102B90002000390000F006FAD2B2092AE8D90D9BCC
:102BA0009C466244D2B2E5E70B9A6123920600D5B7
:102BB0004123DBB20EA90A3B1F228C460D93230052
:102BC00062445C461295170055469B46B2460C9EE1
:102BD00008E03033DBB201357B55B4420ED3202DF3
:102BE0000CD004003100200000F09AF9CBB2092982
:102BF000EFD90D9A94466344DBB2ECE756465C4647
:102C0000AA46129D3FE6099B1A0008CAD9171392DB
:102C10005A184A409246DA0F1292002B08D18023AC
:102C200010220B99DB000B4091430B91002B2BD111
:102C30000B9A6123920600D541230EAA1F279446C2
:102C4000DBB20A3B0D9567445D460993A3465446A3
:102C5000B2460C9E08E03033DBB201357B55B442FE
:102C60000ED3202D0CD004003100200000F058F9C4
:102C7000CBB20929EFD9099A94466344DBB2ECE759
:102C800056465C46AB460D9D0B9B2A0006930A9B5D
:102C900021000593434604930C9B08980393129BD1
:102CA000013602935B46019316AB00934B46FEF749
:102CB00027FE139B05000993FFF727FB02230C93C4
:102CC0001AE7099B04CB92461293002A08D180236D
:102CD00010220B99DB000B4091430B91002B2BD161
:102CE0000B9A6123920600D541230EAA1F27944612
:102CF000DBB20A3B0D9567445D460993A3465446F3
:102D0000B2460C9E08E03033DBB201357B55B4424D
:102D10000ED3202D0CD004003100200000F000F96B
:102D2000CBB20929EFD9099A94466344DBB2ECE7A8
:102D300056465C46AB460D9D0B9B2A0006930A9BAC
:102D400021000593434604930C9B089803930023AA
:102D500002935B46019316AB00934B46FEF7D0FD02
:102D6000129B050009930136FFF7CFFAB44200D851
:102D700071E6149B54460E960F97AA469846159EE8
:102D8000139D8EE6A64200D8FBE6139B5646984656
:102D9000AA465C46129D76E508C9D8171A18424023
:102DA0000991FFF78AFB00230B9350E4099B04CBA6
:102DB0009346099359E52F00BBE50B9301E6063BCB
:102DC0000C939AE60EB4012210B585B007AC08CC7E
:102DD00001000094524204480394FFF771FA05B0D1
:102DE00010BC08BC03B01847591800100FB410B538
:102DF0000C4984B006AA08CA0C680392002C0BD0B8
:102E0000009201220848524202A9A047012004B0C2
:102E100010BC08BC04B01847180001F057F9002096
:102E2000F5E7C04680100020CD1A001010B5094A01
:102E30000300146884B0002C08D0012200910648D9
:102E4000524203A9A047012004B010BD01F03EF991
:102E50000020F9E780100020CD1A0010014804215D
:102E6000014B1847A00200208D2E0010142310B52E
:102E70000100188804331B88984710BD162310B52D
:102E80000100188802331B88984710BDF8B54746E3
:102E9000CE4680B50F1E19D0142399460433040082
:102EA0000025012698464B461888434621681B8812
:102EB000984701C4431E9841013540420640AF4245
:102EC000F1D13000C0BCB946B046F8BD0126F8E7E4
:102ED000124A936F9B0815D29066D166002905D0DF
:102EE000FFE7FFE7FFE7516F106F704704B58021E0
:102EF0000906C2175140002800D0C84306F044FE1E
:102F0000002104BDF0B5146E556E576F166FFFF7B4
:102F1000E3FF1466556657671667F0BD000000D0E2
:102F2000114A936F9B0813D210665166002905D091
:102F3000FFE7FFE7FFE7516F106F704704B5002808
:102F400001D00020C04306F01FFE002104BDC04692
:102F5000F0B5146E556E576F166FFFF7E5FF1466E8
:102F6000556657671667F0BD000000D094464E4A7C
:102F7000926F9208624601D230E0C046F0B54A4EE8
:102F8000B56F6D08FCD3346E756E776F366F00F0D9
:102F900025F89446444A1466556657671667624694
:102FA000F0BDC0469446404A926F9208624601D2F4
:102FB00058E0C046F0B53C4EB56F6D08FCD3346E9A
:102FC000756E776F366F00F04DF89446364A14668A
:102FD0005566576716676246F0BDC046002B24DB76
:102FE00011D000293EDA00B5C943404200D1013179
:102FF00000F038F8C943404200D10131DB4352426E
:1030000000D1013300BD002AEBD1002801D10029F5
:1030100005D00020C90FC90701D1C043410800B540
:1030200006F0AAFD0022002300BD00B500290ADB3E
:10303000DB43524200D1013300F014F8C94340424F
:1030400000D1013100BDC943404200D10131DB4311
:10305000524200D1013300F005F8DB43524200D167
:10306000013300BD002923D1002B18D1002A0CD038
:10307000BC460D4F38667A6600210023FFE7FFE764
:10308000FFE77A6F386F67467047002801D007481E
:10309000010000B506F070FD0022002300BD020013
:1030A0000B00002000217047000000D0FFFFFFFF51
:1030B000002B00D0BFE0130C28D1002AE7D080B449
:1030C000114F39667A66FFE7FFE730B4040C7B6F77
:1030D000396F1B0423433B667A66FFE7FFE7FFE790
:1030E000C04684B27B6F3D6F1B0423433B667A6608
:1030F000FFE7FFE7C04600232C042D0C7A6F386FE2
:1031000000196941B0BC7047000000D0F0B594468A
:103110000025140E01D112020835140F01D112013D
:103120000435940F01D192000235D40F01D1520021
:103130000135D40B0134254F7C66254C3C660E0CC2
:1031400093B2FFE7FFE7FFE73C6F6643360C770378
:10315000BE467343DF0B5B04C01AB941130C7343C3
:10316000DB18C91ACE086643360CB64493B27343D3
:103170001F0F1B01C01AB941130C73431F0B1B0512
:10318000C01AB941860D8F023E436643360C092DA5
:1031900024DB520A7243801A7703460A6643360CD0
:1031A00016235B1BDE40DF40BF1964466643821B6B
:1031B0007046043506330100D940A840C01900D339
:1031C0000131A24206D20023F0BD0000000000D071
:1031D000FFFFFFFF121B0130F3D3F1E709277F1B2D
:1031E000FE406446A2B27243801A00D20139220C1A
:1031F0007243130C1204821A99410B007046043575
:1032000013370100F940A840801900D30131002B89
:1032100002D1A2420AD2F0BD013000D30131121B0B
:10322000FAD2013BF8D1A24200D2F0BD013000D366
:103230000131121BF7E7F0B51C0C00D080E00CB494
:1032400000251C0A04D11B02160E33431202083556
:103250001C0B04D11B01160F3343120104359C0BC8
:1032600004D19B00960F334392000235DC0B02D150
:1032700092185B4101351C00971864410134464F98
:103280007C66464C3C660E0CFFE7FFE7FFE7C04656
:103290003C6F6643360C7703BE4697B27743C01B3C
:1032A00000D20139C01B00D201399FB27743C91B3C
:1032B000C91B170C77437E04FF0B801BB941CE0856
:1032C0006643360C0C2D33DBB644120B1F053A4314
:1032D0001B0B97B27743C01B00D201399FB27743D3
:1032E000C91B170C77433E043F0C801BB941860D68
:1032F0008F023E43664329277F1BFE400C3D7746E5
:10330000AF40BF1930BCA2B2ABB272437343801A54
:103310009941220C7243130C1204801A9941020045
:103320000B000137001BA941F9D2781E0021F0BD26
:103330000C277F1BFE4077467F0BAF40FF19E0E76D
:1033400000245D1C07D0144F7D663966FFE7FFE758
:10335000FFE7FFE73C6F95B29EB265436643401BB3
:10336000B141150C1E0C6543664336042F0C3E43D9
:103370002D04401BB141994204D202000B002000F1
:103380000021F0BD01D19042F7D3801A9941013458
:103390009942F2D3F6E70000000000D0FFFFFFFFE4
:1033A00048404140484018B41B4B5B68FC460193C1
:1033B00008BD04DFD736001018B4174B1B68FC4655
:1033C000019308BD00DFE13600109446134A926F66
:1033D000920809D2624618B40F4BDB68FC46019391
:1033E00008BD0CDF993900100C4AF0B5146E556E0B
:1033F000576F166F6246FFF7EEFF084A1466556670
:1034000057671667F0BD18B4034B9B68FC460193E1
:1034100008BD08DF3D380010A80D0020000000D0D6
:10342000FFB550404240504059404B40594000E0A9
:10343000FFB5154F4C00640D03D0BC4204D10C0302
:1034400014D80020090D09055C00640D03D0BC42AE
:1034500004D11C030AD800221B0D1B0501264B407A
:1034600009D44B4003D58B4200D18242FFBD994223
:10347000FCD19042FFBD0B43DB1803431343F5D04F
:10348000C9434918FFBD0000FF07000000B5FFF762
:10349000CFFF01D0002000BD012000BD00B5FFF727
:1034A000C7FF804100BDC04600B5FFF7C1FF01D98D
:1034B000002000BD012000BD00B5FFF7B1FF01D91C
:1034C000002000BD012000BD00B5FFF7A9FF80412D
:1034D00000BD012040054A00121804D85A001218F5
:1034E00001D800207047012070470020704700007D
:1034F0000021002805D17047C1174840401AFAD072
:10350000C90713B5064B1B6898470CBC441CA24066
:103510001005120B0349091B09051943114310BD7E
:10352000941000201F04000010B54C00620D802391
:10353000D218DB00D21A5B057E2A10DD9E3A13DA20
:10354000CC170903490819435242D14064000134A1
:103550001532202A05DAD0400843604310BD002010
:1035600010BD0846604310BDC80FC018013810BD1B
:1035700018B4044B5B6AFC46019308BD24DF493B49
:1035800000100000A80D002018B4044BDB6DFC46B1
:10359000019308BD5CDF553C00100000A80D002021
:1035A000C94211D300B549004908002200F018F8BB
:1035B000002904D4002240428A41114600BD8021E6
:1035C0000906002000BD000018B4044BDB6EFC4669
:1035D000019308BD6CDF573B00100000A80D0020D0
:1035E00018B4044B9B6FFC46019308BD78DF733B16
:1035F00000100000A80D002018B4044BDB6FFC463F
:10360000019308BD7CDFE13B00100000A80D002005
:10361000132370B51D78012D15D010DD1C48FFF760
:103620002DFC1C4C01008022200000F019FC022D12
:1036300006D01948FFF71AFC184B186070BD154CDE
:10364000174BA364F5E7164B124C23606360A3602D
:10365000E36023616361A361E36123626362A36248
:10366000E36223636363A363E36323646364A36428
:10367000E36423656365A365E36523666366A36608
:10368000E36623676367A367E367A364D1E7C04684
:1036900053440000A80D00204C330000941000207B
:1036A000A536001007B5604601880A0A0230DF2AF5
:1036B000FAD1C9B2820804D30288408800041043BA
:1036C00000E00068014A5050039007BDA80D00209B
:1036D0000FB403BC0CBCF0B50124E407634000E068
:1036E000F0B50C0DCF0F661E3605891B640503D39C
:1036F000C943404200D30131640D03D0661CF60A71
:1037000007D0E41B00207F00791C89078912803CC8
:1037100024031D0DDF0F6E1E36059B1B6D0503D3A5
:10372000DB43524200D301336D0D03D06E1CF60A09
:1037300007D0ED1B00227F007B1C9B079B12803D66
:103740002D032F1B661B58D4A446202E46DA2037A3
:103750001400BC401D00BD40F24033412A43801894
:103760005941CB0F05D0C943C043002264425041A8
:10377000514162464D0D28D10D0D07D100281FD0B3
:10378000241940414941013A0D0DF9D0640006D396
:10379000013000D30131002C01D140084000013A32
:1037A0000BD4941CE40A04D112051144DB0719441C
:1037B000F0BDD907204B194300E0D9070020F0BD28
:1037C0000029DDD1002CDBD1F0BD0132C607400855
:1037D000CD0728434908002EE1D0D9E73C2E29DA4D
:1037E000203E40371400BC4000D00124F240144376
:1037F0001A00BB401C43D317ACE7AC46202F08DAB5
:1038000020360400B4400D00B540F840394128434B
:10381000A5E73C2F0CDA203F40360400B44000D02E
:103820000124F84004430800B1400C43C117EAE703
:1038300010001900002494E70000F07FF0B50C0D93
:10384000661E3605891BE60A6405640D02D0651CF8
:10385000ED0A04D0002001210905803C2403A44680
:103860001C0D671E3F05DB1BE70A6405640D02D0D3
:10387000651CED0A04D0002201231B05803C2403B3
:103880007740644497B484B296B27443070C7E4385
:10389000150C6F4380B26843361802D30120000430
:1038A0003F183004350C00197D41844688B29AB225
:1038B00050430C0C62431F0C7C438EB27E43921922
:1038C00002D301263604A4191604170C36186741D2
:1038D00001BC81B29AB25143040C62431B0C5C439D
:1038E00080B25843121802D3012000042418100497
:1038F000130C401863412D185E410020474106BC5F
:1039000088B293B258430C0C6343120C544389B2EF
:1039100051435B1802D301210904641819041A0CDD
:10392000091862416D1856410020474118BCF90240
:10393000720D1143F0026A0D1043ED020A0D03D11E
:103940006D1940414941013B124E9B1B7600B34229
:103950000ED26D0007D30130002671416646354313
:1039600001D1400840001B05C918E4072144F0BDFF
:103970000BDA013306D1013004D101314F0D01D0F2
:103980004908F2E7E1070020F0BD013631050020CB
:10399000EBE70000FF030000F0B51C0D671E3F05BC
:1039A000DB1BE70A6405640D02D0661CF60A04D02E
:1039B000002201231B05803C2403D0252D06002670
:1039C000F6432E661E096E66CE0FF619B446490000
:1039D0004F0D02D07E1CF60A03D000200021403F8C
:1039E0003F033E1BB600B444013F7F05C91B490895
:1039F0002E6F013676089C02950D25437543ED1315
:103A00007543AD1301356D10F603761B0CB4CC0273
:103A1000450D2C43A2B2B3B25A43270C7B43350C5D
:103A20006F43A4B26C431B1902D3012424043F1931
:103A30001C041D0CA4187D4124196D41009A91B2FB
:103A4000ACB26143170C7C432B0C5F4392B25A43D8
:103A5000A41802D301221204BF182204230C521806
:103A60007B41019C6C431B19520ED9010A4344014E
:103A7000A01A81B2B2B2514303145A43360C7343B5
:103A800087B27743D617D21900277E4136049B1997
:103A90001704160C7F185E417316ED18F30100260B
:103AA00080337541A90F06D16400690AE8055B0AF5
:103AB000184309D22FE00422944480337541A90AA7
:103AC000A8059B0A184326D3404149412404009A83
:103AD000019B0D005543641B4343E41A95B286B223
:103AE0007543170C7E43030C5F4392B25A43B618DA
:103AF00002D301221204BF183204330C52197B4145
:103B000052429C41002C02D4002201305141400815
:103B1000CA071043490802B06246D7079210084B03
:103B2000D218084B9A4203D212058918C919F0BD60
:103B30000020002A01DC3900F0BD01331905F5E74A
:103B4000FD030000FE070000002200B5203200F057
:103B500010F8080000BD002200B500F00CF8CA17EC
:103B60009A4200D100BDD8430121C907414000BDA0
:103B700000220B150AD410B5944600F0A7F81414CF
:103B8000013400DA0021CB17144C2047002000211B
:103B900070476244343A0CD40C2A07DA040091408E
:103BA000904052422032D440214310BDD843D943E3
:103BB00010BD203207D40C469440524220321141AD
:103BC000D040204310BD0800C917203203D4524210
:103BD0002032104110BD1800190010BD933B001099
:103BE0004A00520D144BD21A13DDFF2A1EDAD205F9
:103BF000CB0FDB071A43C300400F0903490A0843F0
:103C000010435B0001D301D0013070474308FBD261
:103C1000704702D0C80FC00770470A031213013261
:103C2000F8D1420F072AF5D1012200E0FF22C80F88
:103C300000028018C00570478003000000210A00C0
:103C4000002104E000210A00C11704E00022002343
:103C500006E0C0460022CB1758405940C01A99418F
:103C600030B5184CA21A002903D1010010D0002051
:103C7000203A4C1512D104D2013A001849414C0D9A
:103C8000FAD3114CA24204D212058918DB07C918D5
:103C900030BDD243520D00200021F5E703D4013A94
:103CA00000184941FBD50B324405C00A4D05284395
:103CB000C90A640003D0002460416141E1E7E0D318
:103CC0004408F8E732040000FE0700000A0DCC0F9C
:103CD000531E1B05C91A520503D3C943404200D3E2
:103CE0000131520D03D0531CDB0A07D0121B0020F8
:103CF0006400611C89078912803A1203014BD21AB1
:103D000070470000FF03000051434343C9188C462D
:103D1000110C83B24B4310B4040C614392B280B2D5
:103D2000504362431C041B0C001910BC594113047E
:103D3000120CC018514161447047000007B548405B
:103D40004140484001E0C04607B54200120E03D092
:103D5000FF2A03D1420218D8C00DC0054A00120E36
:103D600003D0FF2A03D14A020FD8C90DC905012289
:103D7000414005D4414001D5814207BD884207BD7D
:103D80000143491801D0C043001807BD00B5FFF733
:103D9000DBFF01D9002000BD012000BD01231B066F
:103DA0004200D21804D84A00D21801D80020704727
:103DB00001207047132310B512481C78FFF75EF8F6
:103DC0000100012C0AD003DD80220F4800F048F8E2
:103DD0000E48FFF74BF80E4B186010BD0A4C5422EA
:103DE000200000F03DF80B4B6365A365E365236697
:103DF0006366A366E36623676367A367E36723627B
:103E0000E361E5E753460000A80E00204C330000B4
:103E100094100020193E001007B5604601880A0A78
:103E20000230DF2AFAD1C9B2820804D3028840885E
:103E30000004104300E00068014A5050039007BDA1
:103E4000A80E002001480421014B1847B0020020B1
:103E50008D2E0010014B1B6818470000B002002097
:103E6000014B5B6818470000B0020020030010B54A
:103E7000080011001B68984710BDC046F0B54646C3
:103E80004F46D646C0B5437C80460E001700002B37
:103E900046D0002A3FDD4B1E9946244B01250024C5
:103EA00000209A460DE04B461B5D0D3B5A425341A4
:103EB000325DDBB20A2A0BD02B00013401359F4260
:103EC0001ADD002CEFD14346325D1B7C0A2AF3D168
:103ED000002BF1D1A04204DA4346211A1B683018A6
:103EE0009847434650461B680221984701342800F2
:103EF0002B0001359F42E4DC874204DD4346391A3A
:103F00001B6830189847F619013E33780D3B5A422A
:103F1000534142461374E0BCBA46B146A846F0BDD0
:103F20000368110030009847F5E7C046189F00105D
:103F3000F0B557464E464546DE461C00D023E0B558
:103F40001B061F68344B83B006000D00180001A942
:103F500091469A4605F020FE8046002808D1019B34
:103F60007FB29F4204D0504605F01EFE01239846C2
:103F70006B1C03D1300000F0B3FE0500002C27D1EC
:103F8000264F274B1C68002C18D04B46002B21D104
:103F9000244B994602E0E468002C0FD02368002BE4
:103FA000F9D04B461B68002B01D0A342F3D120006F
:103FB0002A003100B847E468002CEFD14346002BBB
:103FC00025D103B0F0BCBB46B246A946A046F0BD21
:103FD000154FD6E7134B99460A239B4602E0E46847
:103FE000002CEBD02368002BF9D04B461B68002B2C
:103FF00001D0A342F3D12A0031002000B8475A462D
:104000006B4620001A7101A90122B847E7E7504624
:1040100005F0AAFDD5E7C046880C00207D3E0010C3
:1040200074100020781000206D3E0010F0B5CE46D0
:10403000474680B583B06B46DE1CD02330701B062C
:104040001C681F4B804601A91800994605F0A4FD85
:10405000071E20D01B4B1C68002C28D01A4D02E0F4
:10406000E468002C0FD02368002BF9D02B68002BBC
:1040700001D0A342F4D1200001223100FFF7FEFE5F
:10408000E468002CEFD1002F11D1404603B0C0BC32
:10409000B946B046F0BD019B64B29C420BD0484685
:1040A00005F082FD074B01271C68002CD6D148463D
:1040B00005F05AFDE9E7034B1C68002CCED1E4E77C
:1040C000880C0020741000207810002070B50400C7
:1040D00000F006FE00230100050001222000FFF78A
:1040E00027FF084B1C68002C06D06368002B05D006
:1040F0009847E468002CF8D1280070BDE468002CD3
:10410000F3D1F9E774100020F0B54746D64680B5E4
:1041100016000F0083B000282DD11C4B1C4D1A68CF
:104120005B68019200931B4B9A461B4B9846534683
:104130001C68002C03D114E0E468002C11D02B681B
:10414000002B01D0A342F7D1A368002BF4D031009B
:10415000380098470028EFDD03B0C0BCBA46B0462F
:10416000F0BD434600995B6A994209D842460198DE
:10417000926A824202D301204042EDE79942FAD18D
:1041800001200021FCF768FDD1E7C046E09B00104C
:10419000781000207410002000400540F0B54F4614
:1041A000D6464646C0B501380D00170082B001283A
:1041B00042D8D0231B061C68214B01A918009A463F
:1041C00005F0EAFC8146002808D1019B64B29C42BC
:1041D00004D0504605F0E8FC01239946B8467B1C04
:1041E00003D1280000F07CFD8046164B1C68002C93
:1041F00014D0154E02E0E468002C0FD02368002B89
:10420000F9D03368002B01D0A342F4D120004246FC
:104210002900FFF733FEE468002CEFD14B46002B5A
:1042200006D1380002B0E0BCBA46B146A846F0BD9F
:10423000504605F099FCF4E701277F42F1E7C046BC
:10424000880C002074100020781000200A4A13689F
:10425000002B05D10CE01A00DB680C32002B07D0D4
:104260009842F8D1002902D1C3681360C160704739
:104270000029FCD01060FAE77410002010B500F09F
:1042800043F810BDF0B50D1E15DD0E4B0D271A6855
:104290000D4B4519D31859424B410C495B005E5EEA
:1042A00020210478A64207D093691942FCD101303D
:1042B0001460A842F5D1F0BD93691942FCD1176092
:1042C000F2E7C046B01000200080FCBFAC10002018
:1042D00030B504000D1E12DD00201021094B013CF9
:1042E0001A689369194208D1013093691942FCD1C7
:1042F000136823548542F4D130BD0028FCD103203B
:104300004042F9E7B0100020E12110B50B4B0C48FA
:104310001B780C4B49021B780B4B1860FCF788FF8D
:1043200002210020FCF76AF802210120FCF766F860
:1043300001210648FFF78AFF10BDC0466CA8001097
:104340000040034070A80010B0100020C002002000
:1043500010B5514300F02AF8041E0ED00300083BAC
:104360005A6803239A43043A242A15D80300132ACF
:1043700005D800221A605A609A60200010BD002102
:104380000833016041601B2AF3D98160C160242A8F
:1043900006D003001033ECE70021FFF75BFDECE7EC
:1043A0000300016118334161E3E7C046F0B54E46B2
:1043B0004546DE465746E0B50D000B35060083B096
:1043C000162D22D8102900D9B2E000F0A9FA102544
:1043D00018230220CC4FFB181A005C68083A94425C
:1043E00000D1B5E0032362689A431300E268A16834
:1043F000CA6091600122E318596830000A435A608C
:1044000000F090FA2000083095E007239D4300D586
:104410008EE0A94200D98BE000F082FAFC235B0019
:104420009D4200D2A1E1680A00D18BE0042800D9A6
:1044300074E138239846A80980443930C100B24F4E
:1044400079184C680839A1420ED003239C4604E039
:10445000002ACBDAE468A14206D06246636893433F
:104460005A1B0F2AF4DD40463A003C690832944258
:1044700000D178E003236168994389460B00491B0A
:104480000F2900DD75E17A613A610029B2DA8022F4
:104490009200914500D310E15909DA0801238B40BD
:1044A000D2007968D2190B4391687B60E260A16009
:1044B0009460CC60012182109140994259D80B42FE
:1044C00005D103229043490004300B42FBD0032363
:1044D0009846C3009946B944CC4682466346DC6898
:1044E000A44507D126E1002A00DB2FE1E468A445BA
:1044F00000D11FE14246636893435A1B0F2AF2DD45
:1045000001208046611905436560A068E5680837A9
:10451000C560A86040461043F960B9604860CF604C
:1045200030008F60E25000F0FDF92000083002E01A
:104530000C230020336003B0F0BCBB46B246A94652
:10454000A046F0BD80213F2340209846890076E7B1
:10455000DC680230A34200D044E73A003C690832EC
:10456000944200D086E701217B68821091409942F5
:10457000A5D90323BC6862689A439146954203D843
:10458000531B0F2B00DD8AE023004B445F4A01934D
:104590005F4B93469A4612681B68EB18013200D1B4
:1045A00036E15C4A944663441B0B1B0300933000C6
:1045B000009900F063FB03008046013300D1F3E073
:1045C000019B834200D9EDE05246009852680300F7
:1045D0009446514663444B6001991A00414500D10D
:1045E0004BE15B461B68013300D150E14346019922
:1045F0005B1A9A1853465A600723424641461A40AE
:104600000192194200D10DE108239846881A424BC5
:104610000099804441449B1A5B1A1B051B0D0091B5
:10462000300019009B4600F029FB431C00D14AE1F1
:104630004346C01A03005B440093534652465B68EE
:1046400001215B44536042464046BA60009A0A43E7
:104650004260BC4200D11EE14A460F2A00D81CE14C
:1046600007200C3A824360680140052011436160D5
:10467000A118486088600F2A00D92FE142464446BD
:1046800052685146C96A994201D25146CB6251469D
:10469000096B994200D389E051460B6386E0012201
:1046A000290013431143651961603000BD606B60E0
:1046B00000F038F9200008303DE75A0A042A6BD987
:1046C000142A00D9BEE011005C325B31D20008230D
:1046D0005B429C46BA18944463469A680323984602
:1046E000944500D197E0434651689943494502D922
:1046F00092689445F7D1D3689C467B686146A26076
:10470000E1608C60D460D5E6100700200807002027
:10471000C40F00200F10000008100000142852D908
:10472000542800D996E06E239846280B80446F30B9
:10473000C10084E608239B46073BDC449B46DA44E1
:1047400043465246134200D0C8E64CE00122E3182B
:10475000596830000A435A60E368A268D3609A60DF
:1047600000F0E0F820000830E5E62B00E808083308
:1047700030E6012360191D43656078613861C260CD
:1047800082601A004B460A4342603000E15000F05C
:10479000C9F820000830CEE69A09110039323831C4
:1047A000D20094E7BC4260D0BC68626803239A439D
:1047B000531B954202D80F2B00DD70E7300000F04C
:1047C000B1F80020B7E65B23984680445C30C10016
:1047D00035E608235B429C46E1444B469B68013822
:1047E0004B4500D097E043460342F2D17B688B43B0
:1047F0007B604900994200D9BBE6002904D1B8E6A4
:10480000042294464900E2440B42F9D0504660E647
:1048100010330093CBE68910023B8B4079680B4341
:104820007B606BE7009B300043445B421B051B0D24
:1048300019009B4600F022FA431C00D0F8E6002342
:104840009B46FAE6542A2AD81A0B11006F326E31B1
:10485000D2003CE7AA235B0098422AD8DD3B984669
:10486000E80B80447830C100E9E553465B68009A64
:104870009C46534662445A60B3E6090500D0B0E650
:104880000200BC684A4401310A436260F9E65B46B3
:1048900042461A60B0E64446F3E641608EE7AA213C
:1048A00049008A4224D8DA0B110078327731D200DD
:1048B0000DE71A4B984224D87C239846A80C8044D4
:1048C0007D30C100BBE5009A019B94464246083BFF
:1048D00063449B1A009300239B46AEE62100300000
:1048E000083101F055FC5346BC685B686268C8E655
:1048F0000A498A420BD89A0C11007D327C31D200D1
:10490000E5E6FE217E237F209846890097E5FE227A
:104910007E219200DBE67B686BE7C0465405000011
:104920007047C0467047C046F0B557464546DE461C
:104930004E46E0B50C000700904683B0002900D138
:10494000A8E045460B35FFF7EBFF162D70D8102574
:104950001023A84570D82600083E7168032208007D
:10496000904381460096984200DB77E0C24A3018B7
:1049700093469268824200D1CAE042680190009258
:10498000012292465046009A8243019894468346FB
:10499000DC44624650465268024200D071E0032077
:1049A000009ACB4682439446E3449B4550DA5246F4
:1049B0000A4211D103213268B21A924652688A43E0
:1049C0006146511849448B46994200DB78E04A44DD
:1049D00093469A4200DB78E041463800FFF7E6FC58
:1049E0008046002820D07368B446009301230099C4
:1049F000020099430B00083A6344934200D1F7E068
:104A00004A46043A242A00D9F7E003002100132A79
:104A100000D9C8E00A681A604A685A608A689A60D1
:104A20002100380001F0B4FB3800FFF77BFF07E0FE
:104A300007239D432B1E8CDA0C233B6000239846F2
:104A4000404603B0F0BCBB46B246A946A046F0BD06
:104A5000D946019AD3689268D3609A604B465B1B33
:104A60000F2B1CD801214A4673680B401343736017
:104A70004E447368194371603800FFF753FFA04636
:104A8000DEE70842A8D103213268B21A9246526882
:104A90008A439CE71100FFF789FC8046D0E701209C
:104AA0007268711902400343154375604B604E44B0
:104AB0007368083118437060380001F069FBDBE768
:104AC000019AD3689268D3609A6053465246DB6875
:104AD00092685646D3609A604A46043A0836242AB9
:104AE0006BD83300132A09D953462168996061684D
:104AF000D9601B2A00D98EE0083410332268D946C9
:104B00001A6062685A60A26834009A605646A5E747
:104B10005068032290430D3282469446CA44AC4406
:104B2000E24552DACA0700D556E73168721A032106
:104B3000924652688A4310180100494400918C45FE
:104B400000DD44E753465246DB689268D3609A60C2
:104B500008234A465344043A9846242A75D8132A0F
:104B600008D95346216899606168D9601B2A71D8B9
:104B70000834103322681A6062685A60A2689A602A
:104B8000534659195B469960009B38005A1B012314
:104B90001A434A605246526813401D4353465D60B3
:104BA000FFF7C0FE4CE721680160616841601B2A85
:104BB00027D82100083308312CE7210030003400C9
:104BC00004F0FAFFD946564648E75B460098A046EF
:104BD0004119996053465A1B01231A434A604168A0
:104BE0000B401D43456038000091FFF79BFE27E70F
:104BF00003225B689343994430E7210004F0DCFF13
:104C00000EE7A1688160E168C160242A0CD0210010
:104C100010331031FEE6A1681961E1685961242A58
:104C20000BD01034183369E72269210002610200B9
:104C30006069183118335061ECE622699A61524676
:104C400061692033D161183458E72100180004F05D
:104C5000B3FF95E7A1681961E1685961242A02D080
:104C60001034183386E722699A615246616920330D
:104C7000D16118347EE7C04610070020002370B5CC
:104C8000064D040008002B60FCF7BAFB431C00D063
:104C900070BD2B68002BFBD02360F9E7F80F0020D4
:104CA0000FB400B5064983B004AB086804CB416873
:104CB000019301F01FF803B008BC04B01847C046C8
:104CC000D80200200EB400B582B003AB04CB41681B
:104CD000019301F00FF802B008BC03B01847C046BA
:104CE00010B583070AD00300032102E001330B4211
:104CF00005D01A78002AF9D1181A10BD03001968D6
:104D00000C4A0D4C8A188A4322420FD15968094A2D
:104D100004338A188A43224208D15968054A043369
:104D20008A188A432242F1D000E001331A78002A1F
:104D3000FBD1E1E7FFFEFEFE80808080F0B55746A4
:104D4000DE464E464546E0B5C94C0F00A5440A93E1
:104D50000C23C95E80239B018246194205D10B4377
:104D6000BB81796EC34B0B407B6613780132139382
:104D70000392002B01D100F001FF002291460B921B
:104D8000049208920592BC4A93465246CA469146FE
:104D900008215A460C00D25C1440114229D1252B1F
:104DA00013D1039B00251A780023984604330F2063
:104DB0009C46039B591C1300253BDBB2532B0ED89A
:104DC000AE4E9B00F3589F4603917B68002B3CDD61
:104DD000039B3A68013B11781B7899422CD00598C7
:104DE000B1239B009D44F0BCBB46B246A946A046F9
:104DF000F0BD082455464E467B680BE059463A689C
:104E00001378CB5C1C420DD07B680132013B01352D
:104E10007B603A60002BF1DC3900300001F0C4FB0C
:104E20000028EBD0AA46B146039A137801321393B7
:104E30000392002BACD1D2E77B680132013B7B604F
:104E400001239C463A60E244EEE73900484601F00F
:104E5000ABFB0028BCD0059B002B02D0BB895B06B6
:104E6000BDD501235B420593B9E78F232B42B6D111
:104E700043469B0043445B009A1830235B429846AC
:104E8000039B904403915A7893E7042603917B682F
:104E9000002B52DD6B0658D5032E00D187E0042E7F
:104EA00000D1FDE1012E00D1C7E1022E00D023E1A7
:104EB0004346002B01D1013B9846EB0700D576E332
:104EC000EB0601D400F05AFC59463A681378CB5CE3
:104ED0001B07A9D401323A6042467B680124013B9A
:104EE000082546467B60012A11D100F0B4FE5946E0
:104EF0003A681378CB5C1D4211D17B680132013BCB
:104F000001347B603A60A64201D100F00AFE002B1A
:104F1000EDDC3900484601F047FB0028E7D0A24409
:104F200082E780239B001D43554B03260B931023E0
:104F300008937B680391002BACDC3900484601F0F4
:104F400033FB002887D16B06A6D459463A681378FC
:104F5000CB5C1B07A0D521004B465446A9468A4688
:104F60001D0007E0594601323A601378CB5C0821F6
:104F7000194213D07B680134013B7B60002BF1DCCC
:104F80003900280001F010FB002800D063E75946E3
:104F90003A681378CB5C08211942EBD153462A00BA
:104FA000A2464D461C009146032E00D077E74346AB
:104FB000AE220021013B52000691934205D95D3B90
:104FC000FF3B06935E23FF339846D82300221B0144
:104FD0001D4358AB44461E0090460C933A68117826
:104FE0000B002B3BDBB24D2B00D9B3E025489B00D7
:104FF000C3589F4601231D43214B03260B930823CF
:105000000391089343E701231D431F4B03260B9392
:105010000A23039108933AE718A801F057FB4023AD
:10502000012603901D4332E7402300261D430391D0
:105030002DE7882376E70226039128E7104B032605
:105040000B930A230391089321E7284200D0C6E678
:1050500002231D43039B03915A78AAE6284200D0FD
:10506000BDE663461D43039B03915A78A1E6C04603
:105070003CFDFFFFFFDFFFFF51A30010689F001002
:10508000797E0010B8A00010ED7A0010CF4B0326F7
:105090000B93002303910893F9E6284200D09EE683
:1050A000039B5A786C2A01D100F02FFD0123039154
:1050B0001D437EE60391EB0600D5B5E66B0701D5EF
:1050C00000F0EEFCEB0701D500F05CFDAB0701D46E
:1050D00000F058FD51460A9B04CB1160C91751607E
:1050E0000A93A1E643462B43984600D077E6039BFC
:1050F00010255A7803915CE64446002C00D1013417
:10510000EB0701D500F015FCEB0600D518E30A9D6E
:10511000230002CD01224846009700F023FF00281B
:1051200000D198E6059B8244013305930A957BE6FE
:10513000089B0A2B0EDDA64B1D40317001367B68A3
:10514000013B7B60002B71DD01323A60013C002C99
:1051500000D043E73400EB0508D50C9B9E4201D9F3
:1051600000F0BBFC0C9B9C4200D138E610231A00D7
:105170002A402B4200D0FFE1089B227048460022C3
:105180000C990B9EB047AB0600D5EEE16B0701D53D
:1051900000F079FCEB0700D5E7E1AB0700D4E4E1D0
:1051A0008C4B0B9A9A4201D100F04DFD00224846EB
:1051B000089B0C9902F0A0FD0A9B04CB03C20A9342
:1051C000D7E1089B84485B00C35E0893804B1D4079
:1051D000B3E7C0238020DB002B4080008342B9D19D
:1051E0007E4B1D40A023DB001D4310230893A4E742
:1051F00080232B42AED09D439FE7089B76485B00FF
:105200001B5E0893082B96DCA4E72B0595D5089B1D
:10521000002B05D180239B001D43F93BFF3B0893E6
:105220006B0500D4F6E36E4B1D4086E73900484617
:1052300001F0BAF9002889D08CE74346002B01D150
:10524000013B9846EB0700D5E0E2EB0600D429E2EB
:105250003A6818AD1378EB5C002B00D1BFE5013242
:105260003A6042467B684446013B7B60012A0DD18F
:1052700014E03A681378EB5C002B0FD07B680132A6
:10528000013B01367B603A60B44207D0002BF0DC72
:105290003900484601F088F90028EAD0B244C3E555
:1052A000484601F0FBF80368AE220E934346002106
:1052B000013B52000F91934205D95D3BFF3B0F9399
:1052C0005E23FF339846F023DB001D430023069343
:1052D0001193109309930D9358AB1E000C93230068
:1052E0004446A84655469A463A6811780B002B3B2F
:1052F000DBB24E2B03D83B489B00C3589F460E9B06
:105300001B788B4217D1802043468000034212D085
:10531000354803409846099B0D933170013C013696
:105320007B680135013B7B60002B00DC15E101321D
:105330003A60002CD8D1099B5446AA464546002B1A
:1053400000D031E1069B013B012B01D800F057FC56
:10535000631E062B00D97FE0022C01D800F08AFCE6
:10536000032C79D03B004F469846A94625003400CF
:10537000013C42463800217802F0D6FE63199B1B9F
:10538000DBB2032BF4D82C00043CE4B2E343F61860
:105390005346013B1B1B4D469A46B94647465BE0C8
:1053A000069B5344002BC6D14046104B1840804604
:1053B000B3E7069B012BBED102230693ADE753460C
:1053C000072BB8D108239A46A7E7C046ED7A00100C
:1053D0007FF4FFFF797E00102CA30010FFFDFFFF7C
:1053E0007FFAFFFFF0A100107FFDFFFF7FFEFFFFB0
:1053F0005346062B9FD107239A468EE7069B002B28
:1054000000D0C7E0099B002B06D1E0234046DB001B
:105410001840984200D195E35346012B01D0042B4C
:1054200089D153460133DBB29A4676E75346002BC7
:1054300000D0A6E0099B002B00D0B2E0E02340465C
:10544000DB001840984200D174E3069BAA46013B5A
:105450004546012B00D8D2E3EB0513D56B0500D5EB
:10546000DFE30123741E5B4221785344984665298B
:1054700002D0452900D0F2E23A00484602F054FE3C
:10548000C246260010231A002A402B4200D0CBE44B
:10549000C02332708022DB002B40D200934200D127
:1054A00023E3109B002B00D001E3002248460C9917
:1054B00002F0A6F906900791EB0700D4B7E20A9B29
:1054C00004CB106051600A93059B01330593ABE454
:1054D0005346022B00D02EE703239A461DE7A02354
:1054E0004046DB0003408020C000834207D0434693
:1054F000034200D11FE7099B002B00D17AE38020F3
:1055000043468000034204D1099B0D9811961B1A53
:1055100010934046BB4B18400300C0204000184386
:10552000002380460993F8E680234046034200D1D9
:1055300001E798438046F0E64346DB0500D42FE7B9
:10554000802341469943099B8846013309930F9B69
:10555000002B00D0F0E0013CE2E63900484601F0C3
:1055600023F8002800D1E4E6E5E60A9B04CB1060AE
:105570000A93059B013305930C9BE41A4444A2440F
:1055800052E4FD20033B034200D0D4E60433DBB2F7
:105590009A46C2E6069B022B00D03DE70323069302
:1055A000BBE65446AA464546974B1D40CAE6102323
:1055B0001A002A40069213AE2B4200D14BE25A4603
:1055C0003B681B78D35C1B0761D4002400F03AFFD2
:1055D000A04200D13FE490203B6810A91A78400017
:1055E00009180A5501337A683B60049B013A651C2F
:1055F0007A6016AC032B02D1169B042B04D0082230
:1056000000212000FEF726FC2B00310048460094C4
:1056100058AA099500F04AFF0490421C00D11AE4F0
:10562000002800D096E23060002000F0D7FE00286D
:1056300018D1AA4401235B429C46E044069B002506
:10564000002B00D104367B68002B00DCA1E25A4617
:105650003B681B78D35C1B0719D44346002B16D03C
:105660002C00B3E7002D12D0202410AB9C46FF3451
:105670006444B04626004C46099D715D3A00200006
:10568000013D02F051FD002DF7D14646A146069B93
:10569000002B01D0FFF7C8FB3360059B0133059356
:1056A000FFF7C2FB0A9B18AD02CB09933B6806913A
:1056B0001A78AA5C002A01D1FFF791FB7A684E1C88
:1056C000013A7A605A1C3A601B780B704346012BF2
:1056D00022D08C463400E0440FE03B681A78AA5C84
:1056E000002A19D07A680134013A7A605A1C3A606B
:1056F0001B783370A04500D105E27B682600002BA3
:10570000EBDC3900484600F04FFF0028E5D0069B4F
:10571000A34201D1FFF79FFB069AB31A964201D12B
:10572000FFF75DFB00223270059A9A44099B013213
:1057300005920A93FFF778FB0F9B013B0F93EFE570
:1057400000254E460CE03A68ED189446E41A63448E
:10575000390030003B6000F027FF002800D0CAE18C
:105760007B689C42EFDC1B1B7B603B682D199C46D1
:105770006444B1463C60AA44FFF756FB58460A9B76
:1057800002CB09933B6806911A78825C120700D518
:1057900066E27A684D1C013A7A605A1C3A601B78BE
:1057A0002C000B70434641440E00012B13D159E2EB
:1057B00059463B681A788A5C0821114200D0ACE156
:1057C0007A680134013A7A605A1C3A601B782B706F
:1057D000A64200D1A9E17B682500002BE8DC390056
:1057E000484600F0E1FE0028E2D0069BE31A9A4406
:1057F00000232B70059B01330593099B0A93FFF748
:1058000013FBC0467FF8FFFFFFFEFFFF10231A00C7
:105810002A400E9213AE2B4200D130E100254B46B8
:10582000C146A846069300F00DFE404501D1FFF7A2
:1058300012FB4246902540463B68541C10A91A783A
:105840006D00491901330A547A683B60049B013AA0
:105850007A60032B4DD014AB9846082200214046B5
:10586000FEF7F8FA4346310000930698230058AA41
:10587000099400F01BFE0490421C01D1FFF7EBFAE3
:1058800000283CD130600C9016AB08220021180093
:105890000D93FEF7DFFAE023D04A0698D55812A9F7
:1058A0000D9B0C9AA8470023012801D110AB1B7A4D
:1058B00018AAD35C002B00D177E1049BA244032BF0
:1058C00032D001235B429C46E1440E9B002B00D169
:1058D0000436002398467B68002B18DD4B46002BCE
:1058E000A1D1069B99460E9B002B01D0FFF79CFA95
:1058F000D2E614AB9846149B042BAED1B2E7049BBE
:10590000023300D0C8E17B68A046002B8BDC390055
:10591000069800F049FE0028E0D04546069B9946CF
:10592000002DE0D0FFF797FA43461B68042BC8D13F
:10593000CBE710231A002A400692002290462B4201
:1059400000D197E043460026A0461C0000F07AFDF7
:10595000B04201D1FFF77FFA90203B6810A91A7876
:10596000400009188A5501337A683B60049B013A6C
:10597000751C7A6016AE032B02D1169B042B04D043
:10598000082200213000FEF765FA2B00210048466E
:10599000009658AA00F08AFD0490421C01D1FFF73E
:1059A0005AFA00281DD1069B002B00D12360AA447F
:1059B00001235B429C46E044069B002B00D104344B
:1059C0007B680026002B13DD4346002BBED1069BCF
:1059D0005A425341059A94469C4463460593FFF707
:1059E00023FA049B02330DD17B682E00002BADDC23
:1059F0003900484600F0D8FD0028E5D0002EE6D05A
:105A0000FFF729FA049BAA44032BD1D13368042B56
:105A1000CED1D1E7724B1D40069B002B02D0013B3B
:105A20000693013401239C46E044FFF788FBAB0753
:105A30002ED4069807990A9C02000B0020CCFDF793
:105A400048FD002800D00FE106980799FDF7D4FD26
:105A50000A94286038E50A9B40CB0A93AFE53A00E8
:105A6000484602F061FB02235B42B41E5344984651
:105A7000217801E50A9B04CB90460A9362E70A9BD2
:105A800040CB0A93CAE60A9B04CB10800A9370E5C8
:105A90000A9B0698079904CB106051600A9313E59E
:105AA00051460A9B04CB11800A93FFF7BDF9119E62
:105AB0000A2300224846711C02F018F8109BC21AF3
:105AC00010A98C46474B63449E4201D3464E664420
:105AD00030004649FDF776F9E7E4013C3A004846D4
